{
  "_format": "hh-sol-artifact-1",
  "contractName": "GovernanceToken",
  "sourceName": "contracts/GovernanceToken.sol",
  "abi": [
    {
      "inputs": [],
      "stateMutability": "nonpayable",
      "type": "constructor"
    },
    {
      "anonymous": false,
      "inputs": [
        {
          "indexed": true,
          "internalType": "address",
          "name": "owner",
          "type": "address"
        },
        {
          "indexed": true,
          "internalType": "address",
          "name": "spender",
          "type": "address"
        },
        {
          "indexed": false,
          "internalType": "uint256",
          "name": "value",
          "type": "uint256"
        }
      ],
      "name": "Approval",
      "type": "event"
    },
    {
      "anonymous": false,
      "inputs": [
        {
          "indexed": true,
          "internalType": "address",
          "name": "delegator",
          "type": "address"
        },
        {
          "indexed": true,
          "internalType": "address",
          "name": "fromDelegate",
          "type": "address"
        },
        {
          "indexed": true,
          "internalType": "address",
          "name": "toDelegate",
          "type": "address"
        }
      ],
      "name": "DelegateChanged",
      "type": "event"
    },
    {
      "anonymous": false,
      "inputs": [
        {
          "indexed": true,
          "internalType": "address",
          "name": "delegate",
          "type": "address"
        },
        {
          "indexed": false,
          "internalType": "uint256",
          "name": "previousBalance",
          "type": "uint256"
        },
        {
          "indexed": false,
          "internalType": "uint256",
          "name": "newBalance",
          "type": "uint256"
        }
      ],
      "name": "DelegateVotesChanged",
      "type": "event"
    },
    {
      "anonymous": false,
      "inputs": [
        {
          "indexed": true,
          "internalType": "address",
          "name": "from",
          "type": "address"
        },
        {
          "indexed": true,
          "internalType": "address",
          "name": "to",
          "type": "address"
        },
        {
          "indexed": false,
          "internalType": "uint256",
          "name": "value",
          "type": "uint256"
        }
      ],
      "name": "Transfer",
      "type": "event"
    },
    {
      "inputs": [],
      "name": "DOMAIN_SEPARATOR",
      "outputs": [
        {
          "internalType": "bytes32",
          "name": "",
          "type": "bytes32"
        }
      ],
      "stateMutability": "view",
      "type": "function"
    },
    {
      "inputs": [
        {
          "internalType": "address",
          "name": "owner",
          "type": "address"
        },
        {
          "internalType": "address",
          "name": "spender",
          "type": "address"
        }
      ],
      "name": "allowance",
      "outputs": [
        {
          "internalType": "uint256",
          "name": "",
          "type": "uint256"
        }
      ],
      "stateMutability": "view",
      "type": "function"
    },
    {
      "inputs": [
        {
          "internalType": "address",
          "name": "spender",
          "type": "address"
        },
        {
          "internalType": "uint256",
          "name": "amount",
          "type": "uint256"
        }
      ],
      "name": "approve",
      "outputs": [
        {
          "internalType": "bool",
          "name": "",
          "type": "bool"
        }
      ],
      "stateMutability": "nonpayable",
      "type": "function"
    },
    {
      "inputs": [
        {
          "internalType": "address",
          "name": "account",
          "type": "address"
        }
      ],
      "name": "balanceOf",
      "outputs": [
        {
          "internalType": "uint256",
          "name": "",
          "type": "uint256"
        }
      ],
      "stateMutability": "view",
      "type": "function"
    },
    {
      "inputs": [
        {
          "internalType": "address",
          "name": "account",
          "type": "address"
        },
        {
          "internalType": "uint32",
          "name": "pos",
          "type": "uint32"
        }
      ],
      "name": "checkpoints",
      "outputs": [
        {
          "components": [
            {
              "internalType": "uint32",
              "name": "fromBlock",
              "type": "uint32"
            },
            {
              "internalType": "uint224",
              "name": "votes",
              "type": "uint224"
            }
          ],
          "internalType": "struct ERC20Votes.Checkpoint",
          "name": "",
          "type": "tuple"
        }
      ],
      "stateMutability": "view",
      "type": "function"
    },
    {
      "inputs": [],
      "name": "decimals",
      "outputs": [
        {
          "internalType": "uint8",
          "name": "",
          "type": "uint8"
        }
      ],
      "stateMutability": "view",
      "type": "function"
    },
    {
      "inputs": [
        {
          "internalType": "address",
          "name": "spender",
          "type": "address"
        },
        {
          "internalType": "uint256",
          "name": "subtractedValue",
          "type": "uint256"
        }
      ],
      "name": "decreaseAllowance",
      "outputs": [
        {
          "internalType": "bool",
          "name": "",
          "type": "bool"
        }
      ],
      "stateMutability": "nonpayable",
      "type": "function"
    },
    {
      "inputs": [
        {
          "internalType": "address",
          "name": "delegatee",
          "type": "address"
        }
      ],
      "name": "delegate",
      "outputs": [],
      "stateMutability": "nonpayable",
      "type": "function"
    },
    {
      "inputs": [
        {
          "internalType": "address",
          "name": "delegatee",
          "type": "address"
        },
        {
          "internalType": "uint256",
          "name": "nonce",
          "type": "uint256"
        },
        {
          "internalType": "uint256",
          "name": "expiry",
          "type": "uint256"
        },
        {
          "internalType": "uint8",
          "name": "v",
          "type": "uint8"
        },
        {
          "internalType": "bytes32",
          "name": "r",
          "type": "bytes32"
        },
        {
          "internalType": "bytes32",
          "name": "s",
          "type": "bytes32"
        }
      ],
      "name": "delegateBySig",
      "outputs": [],
      "stateMutability": "nonpayable",
      "type": "function"
    },
    {
      "inputs": [
        {
          "internalType": "address",
          "name": "account",
          "type": "address"
        }
      ],
      "name": "delegates",
      "outputs": [
        {
          "internalType": "address",
          "name": "",
          "type": "address"
        }
      ],
      "stateMutability": "view",
      "type": "function"
    },
    {
      "inputs": [
        {
          "internalType": "uint256",
          "name": "blockNumber",
          "type": "uint256"
        }
      ],
      "name": "getPastTotalSupply",
      "outputs": [
        {
          "internalType": "uint256",
          "name": "",
          "type": "uint256"
        }
      ],
      "stateMutability": "view",
      "type": "function"
    },
    {
      "inputs": [
        {
          "internalType": "address",
          "name": "account",
          "type": "address"
        },
        {
          "internalType": "uint256",
          "name": "blockNumber",
          "type": "uint256"
        }
      ],
      "name": "getPastVotes",
      "outputs": [
        {
          "internalType": "uint256",
          "name": "",
          "type": "uint256"
        }
      ],
      "stateMutability": "view",
      "type": "function"
    },
    {
      "inputs": [
        {
          "internalType": "address",
          "name": "account",
          "type": "address"
        }
      ],
      "name": "getVotes",
      "outputs": [
        {
          "internalType": "uint256",
          "name": "",
          "type": "uint256"
        }
      ],
      "stateMutability": "view",
      "type": "function"
    },
    {
      "inputs": [
        {
          "internalType": "address",
          "name": "spender",
          "type": "address"
        },
        {
          "internalType": "uint256",
          "name": "addedValue",
          "type": "uint256"
        }
      ],
      "name": "increaseAllowance",
      "outputs": [
        {
          "internalType": "bool",
          "name": "",
          "type": "bool"
        }
      ],
      "stateMutability": "nonpayable",
      "type": "function"
    },
    {
      "inputs": [],
      "name": "name",
      "outputs": [
        {
          "internalType": "string",
          "name": "",
          "type": "string"
        }
      ],
      "stateMutability": "view",
      "type": "function"
    },
    {
      "inputs": [
        {
          "internalType": "address",
          "name": "owner",
          "type": "address"
        }
      ],
      "name": "nonces",
      "outputs": [
        {
          "internalType": "uint256",
          "name": "",
          "type": "uint256"
        }
      ],
      "stateMutability": "view",
      "type": "function"
    },
    {
      "inputs": [
        {
          "internalType": "address",
          "name": "account",
          "type": "address"
        }
      ],
      "name": "numCheckpoints",
      "outputs": [
        {
          "internalType": "uint32",
          "name": "",
          "type": "uint32"
        }
      ],
      "stateMutability": "view",
      "type": "function"
    },
    {
      "inputs": [
        {
          "internalType": "address",
          "name": "owner",
          "type": "address"
        },
        {
          "internalType": "address",
          "name": "spender",
          "type": "address"
        },
        {
          "internalType": "uint256",
          "name": "value",
          "type": "uint256"
        },
        {
          "internalType": "uint256",
          "name": "deadline",
          "type": "uint256"
        },
        {
          "internalType": "uint8",
          "name": "v",
          "type": "uint8"
        },
        {
          "internalType": "bytes32",
          "name": "r",
          "type": "bytes32"
        },
        {
          "internalType": "bytes32",
          "name": "s",
          "type": "bytes32"
        }
      ],
      "name": "permit",
      "outputs": [],
      "stateMutability": "nonpayable",
      "type": "function"
    },
    {
      "inputs": [],
      "name": "s_maxSupply",
      "outputs": [
        {
          "internalType": "uint256",
          "name": "",
          "type": "uint256"
        }
      ],
      "stateMutability": "view",
      "type": "function"
    },
    {
      "inputs": [],
      "name": "symbol",
      "outputs": [
        {
          "internalType": "string",
          "name": "",
          "type": "string"
        }
      ],
      "stateMutability": "view",
      "type": "function"
    },
    {
      "inputs": [],
      "name": "totalSupply",
      "outputs": [
        {
          "internalType": "uint256",
          "name": "",
          "type": "uint256"
        }
      ],
      "stateMutability": "view",
      "type": "function"
    },
    {
      "inputs": [
        {
          "internalType": "address",
          "name": "to",
          "type": "address"
        },
        {
          "internalType": "uint256",
          "name": "amount",
          "type": "uint256"
        }
      ],
      "name": "transfer",
      "outputs": [
        {
          "internalType": "bool",
          "name": "",
          "type": "bool"
        }
      ],
      "stateMutability": "nonpayable",
      "type": "function"
    },
    {
      "inputs": [
        {
          "internalType": "address",
          "name": "from",
          "type": "address"
        },
        {
          "internalType": "address",
          "name": "to",
          "type": "address"
        },
        {
          "internalType": "uint256",
          "name": "amount",
          "type": "uint256"
        }
      ],
      "name": "transferFrom",
      "outputs": [
        {
          "internalType": "bool",
          "name": "",
          "type": "bool"
        }
      ],
      "stateMutability": "nonpayable",
      "type": "function"
    }
  ],
  "bytecode": "0x6101606040527f6e71edae12b1b97f4d1f60370fef10105fa2faae0126114a169c64845d6126c96101409081525069d3c21bcecceda10000006009553480156200004857600080fd5b506040518060400160405280600f81526020017f476f7665726e616e6365546f6b656e0000000000000000000000000000000000815250806040518060400160405280600181526020017f31000000000000000000000000000000000000000000000000000000000000008152506040518060400160405280600f81526020017f476f7665726e616e6365546f6b656e00000000000000000000000000000000008152506040518060400160405280600281526020017f475400000000000000000000000000000000000000000000000000000000000081525081600390805190602001906200013a92919062000b52565b5080600490805190602001906200015392919062000b52565b50505060008280519060200120905060008280519060200120905060007f8b73c3c69bb8fe3d512ecc4cf759cc79239f7b179b0ffacaa9a75d522b39400f90508260e081815250508161010081815250504660a08181525050620001bf8184846200022660201b60201c565b608081815250503073ffffffffffffffffffffffffffffffffffffffff1660c08173ffffffffffffffffffffffffffffffffffffffff1660601b8152505080610120818152505050505050505062000220336009546200026260201b60201c565b620010ca565b600083838346306040516020016200024395949392919062000c7d565b6040516020818303038152906040528051906020012090509392505050565b6200027982826200032060201b62000f901760201c565b620002896200049960201b60201c565b7bffffffffffffffffffffffffffffffffffffffffffffffffffffffff16620002b7620004bd60201b60201c565b1115620002fb576040517f08c379a0000000000000000000000000000000000000000000000000000000008152600401620002f29062000d61565b60405180910390fd5b6200031a6008620004c760201b620010f01783620004df60201b60201c565b50505050565b600073ffffffffffffffffffffffffffffffffffffffff168273ffffffffffffffffffffffffffffffffffffffff16141562000393576040517f08c379a00000000000000000000000000000000000000000000000000000000081526004016200038a9062000dd3565b60405180910390fd5b620003a7600083836200079060201b60201c565b8060026000828254620003bb919062000e24565b92505081905550806000808473ffffffffffffffffffffffffffffffffffffffff1673ffffffffffffffffffffffffffffffffffffffff168152602001908152602001600020600082825462000412919062000e24565b925050819055508173ffffffffffffffffffffffffffffffffffffffff16600073ffffffffffffffffffffffffffffffffffffffff167fddf252ad1be2c89b69c2b068fc378daa952ba7f163c4a11628f55a4df523b3ef8360405162000479919062000e81565b60405180910390a362000495600083836200079560201b60201c565b5050565b60007bffffffffffffffffffffffffffffffffffffffffffffffffffffffff905090565b6000600254905090565b60008183620004d7919062000e24565b905092915050565b6000806000858054905090506000811462000554578560018262000504919062000e9e565b8154811062000518576200051762000ed9565b5b9060005260206000200160000160049054906101000a90047bffffffffffffffffffffffffffffffffffffffffffffffffffffffff1662000557565b60005b7bffffffffffffffffffffffffffffffffffffffffffffffffffffffff1692506200058383858760201c565b9150600081118015620005dc57504386600183620005a2919062000e9e565b81548110620005b657620005b562000ed9565b5b9060005260206000200160000160009054906101000a900463ffffffff1663ffffffff16145b156200067d57620005f882620007e560201b620011061760201c565b8660018362000608919062000e9e565b815481106200061c576200061b62000ed9565b5b9060005260206000200160000160046101000a8154817bffffffffffffffffffffffffffffffffffffffffffffffffffffffff02191690837bffffffffffffffffffffffffffffffffffffffffffffffffffffffff16021790555062000787565b8560405180604001604052806200069f436200085360201b620011711760201c565b63ffffffff168152602001620006c085620007e560201b620011061760201c565b7bffffffffffffffffffffffffffffffffffffffffffffffffffffffff168152509080600181540180825580915050600190039060005260206000200160009091909190915060008201518160000160006101000a81548163ffffffff021916908363ffffffff16021790555060208201518160000160046101000a8154817bffffffffffffffffffffffffffffffffffffffffffffffffffffffff02191690837bffffffffffffffffffffffffffffffffffffffffffffffffffffffff16021790555050505b50935093915050565b505050565b620007ad838383620008a960201b620011c41760201c565b620007e0620007c284620008ae60201b60201c565b620007d384620008ae60201b60201c565b836200091760201b60201c565b505050565b60007bffffffffffffffffffffffffffffffffffffffffffffffffffffffff80168211156200084b576040517f08c379a0000000000000000000000000000000000000000000000000000000008152600401620008429062000f7e565b60405180910390fd5b819050919050565b600063ffffffff8016821115620008a1576040517f08c379a0000000000000000000000000000000000000000000000000000000008152600401620008989062001016565b60405180910390fd5b819050919050565b505050565b6000600660008373ffffffffffffffffffffffffffffffffffffffff1673ffffffffffffffffffffffffffffffffffffffff16815260200190815260200160002060009054906101000a900473ffffffffffffffffffffffffffffffffffffffff169050919050565b8173ffffffffffffffffffffffffffffffffffffffff168373ffffffffffffffffffffffffffffffffffffffff1614158015620009545750600081115b1562000b3557600073ffffffffffffffffffffffffffffffffffffffff168373ffffffffffffffffffffffffffffffffffffffff161462000a4757600080620009ee600760008773ffffffffffffffffffffffffffffffffffffffff1673ffffffffffffffffffffffffffffffffffffffff16815260200190815260200160002062000b3a60201b620011c91785620004df60201b60201c565b915091508473ffffffffffffffffffffffffffffffffffffffff167fdec2bacdd2f05b59de34da9b523dff8be42e5e38e818c82fdb0bae774387a724838360405162000a3c92919062001038565b60405180910390a250505b600073ffffffffffffffffffffffffffffffffffffffff168273ffffffffffffffffffffffffffffffffffffffff161462000b345760008062000adb600760008673ffffffffffffffffffffffffffffffffffffffff1673ffffffffffffffffffffffffffffffffffffffff168152602001908152602001600020620004c760201b620010f01785620004df60201b60201c565b915091508373ffffffffffffffffffffffffffffffffffffffff167fdec2bacdd2f05b59de34da9b523dff8be42e5e38e818c82fdb0bae774387a724838360405162000b2992919062001038565b60405180910390a250505b5b505050565b6000818362000b4a919062000e9e565b905092915050565b82805462000b609062001094565b90600052602060002090601f01602090048101928262000b84576000855562000bd0565b82601f1062000b9f57805160ff191683800117855562000bd0565b8280016001018555821562000bd0579182015b8281111562000bcf57825182559160200191906001019062000bb2565b5b50905062000bdf919062000be3565b5090565b5b8082111562000bfe57600081600090555060010162000be4565b5090565b6000819050919050565b62000c178162000c02565b82525050565b6000819050919050565b62000c328162000c1d565b82525050565b600073ffffffffffffffffffffffffffffffffffffffff82169050919050565b600062000c658262000c38565b9050919050565b62000c778162000c58565b82525050565b600060a08201905062000c94600083018862000c0c565b62000ca3602083018762000c0c565b62000cb2604083018662000c0c565b62000cc1606083018562000c27565b62000cd0608083018462000c6c565b9695505050505050565b600082825260208201905092915050565b7f4552433230566f7465733a20746f74616c20737570706c79207269736b73206f60008201527f766572666c6f77696e6720766f74657300000000000000000000000000000000602082015250565b600062000d4960308362000cda565b915062000d568262000ceb565b604082019050919050565b6000602082019050818103600083015262000d7c8162000d3a565b9050919050565b7f45524332303a206d696e7420746f20746865207a65726f206164647265737300600082015250565b600062000dbb601f8362000cda565b915062000dc88262000d83565b602082019050919050565b6000602082019050818103600083015262000dee8162000dac565b9050919050565b7f4e487b7100000000000000000000000000000000000000000000000000000000600052601160045260246000fd5b600062000e318262000c1d565b915062000e3e8362000c1d565b9250827fffffffffffffffffffffffffffffffffffffffffffffffffffffffffffffffff0382111562000e765762000e7562000df5565b5b828201905092915050565b600060208201905062000e98600083018462000c27565b92915050565b600062000eab8262000c1d565b915062000eb88362000c1d565b92508282101562000ece5762000ecd62000df5565b5b828203905092915050565b7f4e487b7100000000000000000000000000000000000000000000000000000000600052603260045260246000fd5b7f53616665436173743a2076616c756520646f65736e27742066697420696e203260008201527f3234206269747300000000000000000000000000000000000000000000000000602082015250565b600062000f6660278362000cda565b915062000f738262000f08565b604082019050919050565b6000602082019050818103600083015262000f998162000f57565b9050919050565b7f53616665436173743a2076616c756520646f65736e27742066697420696e203360008201527f3220626974730000000000000000000000000000000000000000000000000000602082015250565b600062000ffe60268362000cda565b91506200100b8262000fa0565b604082019050919050565b60006020820190508181036000830152620010318162000fef565b9050919050565b60006040820190506200104f600083018562000c27565b6200105e602083018462000c27565b9392505050565b7f4e487b7100000000000000000000000000000000000000000000000000000000600052602260045260246000fd5b60006002820490506001821680620010ad57607f821691505b60208210811415620010c457620010c362001065565b5b50919050565b60805160a05160c05160601c60e0516101005161012051610140516136f1620011286000396000610cfe0152600061176d015260006117af0152600061178e015260006116c3015260006117190152600061174201526136f16000f3fe608060405234801561001057600080fd5b506004361061014d5760003560e01c80636fcfff45116100c3578063a457c2d71161007c578063a457c2d714610402578063a9059cbb14610432578063c3cda52014610462578063d505accf1461047e578063dd62ed3e1461049a578063f1127ed8146104ca5761014d565b80636fcfff45146102f457806370a08231146103245780637ecebe00146103545780638e539e8c1461038457806395d89b41146103b45780639ab24eb0146103d25761014d565b80633644e515116101155780633644e5151461020c578063395093511461022a5780633a46b1a81461025a578063587cde1e1461028a5780635c19a95c146102ba5780635d641847146102d65761014d565b806306fdde0314610152578063095ea7b31461017057806318160ddd146101a057806323b872dd146101be578063313ce567146101ee575b600080fd5b61015a6104fa565b60405161016791906123b3565b60405180910390f35b61018a6004803603810190610185919061246e565b61058c565b60405161019791906124c9565b60405180910390f35b6101a86105af565b6040516101b591906124f3565b60405180910390f35b6101d860048036038101906101d3919061250e565b6105b9565b6040516101e591906124c9565b60405180910390f35b6101f66105e8565b604051610203919061257d565b60405180910390f35b6102146105f1565b60405161022191906125b1565b60405180910390f35b610244600480360381019061023f919061246e565b610600565b60405161025191906124c9565b60405180910390f35b610274600480360381019061026f919061246e565b6106aa565b60405161028191906124f3565b60405180910390f35b6102a4600480360381019061029f91906125cc565b61073e565b6040516102b19190612608565b60405180910390f35b6102d460048036038101906102cf91906125cc565b6107a7565b005b6102de6107bb565b6040516102eb91906124f3565b60405180910390f35b61030e600480360381019061030991906125cc565b6107c1565b60405161031b9190612642565b60405180910390f35b61033e600480360381019061033991906125cc565b610815565b60405161034b91906124f3565b60405180910390f35b61036e600480360381019061036991906125cc565b61085d565b60405161037b91906124f3565b60405180910390f35b61039e6004803603810190610399919061265d565b6108ad565b6040516103ab91906124f3565b60405180910390f35b6103bc610903565b6040516103c991906123b3565b60405180910390f35b6103ec60048036038101906103e791906125cc565b610995565b6040516103f991906124f3565b60405180910390f35b61041c6004803603810190610417919061246e565b610aa6565b60405161042991906124c9565b60405180910390f35b61044c6004803603810190610447919061246e565b610b90565b60405161045991906124c9565b60405180910390f35b61047c600480360381019061047791906126e2565b610bb3565b005b6104986004803603810190610493919061276f565b610cb7565b005b6104b460048036038101906104af9190612811565b610df9565b6040516104c191906124f3565b60405180910390f35b6104e460048036038101906104df919061287d565b610e80565b6040516104f19190612932565b60405180910390f35b6060600380546105099061297c565b80601f01602080910402602001604051908101604052809291908181526020018280546105359061297c565b80156105825780601f1061055757610100808354040283529160200191610582565b820191906000526020600020905b81548152906001019060200180831161056557829003601f168201915b5050505050905090565b6000806105976111df565b90506105a48185856111e7565b600191505092915050565b6000600254905090565b6000806105c46111df565b90506105d18582856113b2565b6105dc85858561143e565b60019150509392505050565b60006012905090565b60006105fb6116bf565b905090565b60008061060b6111df565b905061069f818585600160008673ffffffffffffffffffffffffffffffffffffffff1673ffffffffffffffffffffffffffffffffffffffff16815260200190815260200160002060008973ffffffffffffffffffffffffffffffffffffffff1673ffffffffffffffffffffffffffffffffffffffff1681526020019081526020016000205461069a91906129dd565b6111e7565b600191505092915050565b60004382106106ee576040517f08c379a00000000000000000000000000000000000000000000000000000000081526004016106e590612a7f565b60405180910390fd5b610736600760008573ffffffffffffffffffffffffffffffffffffffff1673ffffffffffffffffffffffffffffffffffffffff168152602001908152602001600020836117d9565b905092915050565b6000600660008373ffffffffffffffffffffffffffffffffffffffff1673ffffffffffffffffffffffffffffffffffffffff16815260200190815260200160002060009054906101000a900473ffffffffffffffffffffffffffffffffffffffff169050919050565b6107b86107b26111df565b826118e5565b50565b60095481565b600061080e600760008473ffffffffffffffffffffffffffffffffffffffff1673ffffffffffffffffffffffffffffffffffffffff16815260200190815260200160002080549050611171565b9050919050565b60008060008373ffffffffffffffffffffffffffffffffffffffff1673ffffffffffffffffffffffffffffffffffffffff168152602001908152602001600020549050919050565b60006108a6600560008473ffffffffffffffffffffffffffffffffffffffff1673ffffffffffffffffffffffffffffffffffffffff1681526020019081526020016000206119ff565b9050919050565b60004382106108f1576040517f08c379a00000000000000000000000000000000000000000000000000000000081526004016108e890612a7f565b60405180910390fd5b6108fc6008836117d9565b9050919050565b6060600480546109129061297c565b80601f016020809104026020016040519081016040528092919081815260200182805461093e9061297c565b801561098b5780601f106109605761010080835404028352916020019161098b565b820191906000526020600020905b81548152906001019060200180831161096e57829003601f168201915b5050505050905090565b600080600760008473ffffffffffffffffffffffffffffffffffffffff1673ffffffffffffffffffffffffffffffffffffffff16815260200190815260200160002080549050905060008114610a7d57600760008473ffffffffffffffffffffffffffffffffffffffff1673ffffffffffffffffffffffffffffffffffffffff168152602001908152602001600020600182610a319190612a9f565b81548110610a4257610a41612ad3565b5b9060005260206000200160000160049054906101000a90047bffffffffffffffffffffffffffffffffffffffffffffffffffffffff16610a80565b60005b7bffffffffffffffffffffffffffffffffffffffffffffffffffffffff16915050919050565b600080610ab16111df565b90506000600160008373ffffffffffffffffffffffffffffffffffffffff1673ffffffffffffffffffffffffffffffffffffffff16815260200190815260200160002060008673ffffffffffffffffffffffffffffffffffffffff1673ffffffffffffffffffffffffffffffffffffffff16815260200190815260200160002054905083811015610b77576040517f08c379a0000000000000000000000000000000000000000000000000000000008152600401610b6e90612b74565b60405180910390fd5b610b8482868684036111e7565b60019250505092915050565b600080610b9b6111df565b9050610ba881858561143e565b600191505092915050565b83421115610bf6576040517f08c379a0000000000000000000000000000000000000000000000000000000008152600401610bed90612be0565b60405180910390fd5b6000610c58610c507fe48329057bfd03d55e49b547132e39cffd9c1820ad7b9d4c5307691425d15adf898989604051602001610c359493929190612c00565b60405160208183030381529060405280519060200120611a0d565b858585611a27565b9050610c6381611a52565b8614610ca4576040517f08c379a0000000000000000000000000000000000000000000000000000000008152600401610c9b90612c91565b60405180910390fd5b610cae81886118e5565b50505050505050565b83421115610cfa576040517f08c379a0000000000000000000000000000000000000000000000000000000008152600401610cf190612cfd565b60405180910390fd5b60007f0000000000000000000000000000000000000000000000000000000000000000888888610d298c611a52565b89604051602001610d3f96959493929190612d1d565b6040516020818303038152906040528051906020012090506000610d6282611a0d565b90506000610d7282878787611a27565b90508973ffffffffffffffffffffffffffffffffffffffff168173ffffffffffffffffffffffffffffffffffffffff1614610de2576040517f08c379a0000000000000000000000000000000000000000000000000000000008152600401610dd990612dca565b60405180910390fd5b610ded8a8a8a6111e7565b50505050505050505050565b6000600160008473ffffffffffffffffffffffffffffffffffffffff1673ffffffffffffffffffffffffffffffffffffffff16815260200190815260200160002060008373ffffffffffffffffffffffffffffffffffffffff1673ffffffffffffffffffffffffffffffffffffffff16815260200190815260200160002054905092915050565b610e886122dc565b600760008473ffffffffffffffffffffffffffffffffffffffff1673ffffffffffffffffffffffffffffffffffffffff1681526020019081526020016000208263ffffffff1681548110610edf57610ede612ad3565b5b906000526020600020016040518060400160405290816000820160009054906101000a900463ffffffff1663ffffffff1663ffffffff1681526020016000820160049054906101000a90047bffffffffffffffffffffffffffffffffffffffffffffffffffffffff167bffffffffffffffffffffffffffffffffffffffffffffffffffffffff167bffffffffffffffffffffffffffffffffffffffffffffffffffffffff1681525050905092915050565b600073ffffffffffffffffffffffffffffffffffffffff168273ffffffffffffffffffffffffffffffffffffffff161415611000576040517f08c379a0000000000000000000000000000000000000000000000000000000008152600401610ff790612e36565b60405180910390fd5b61100c60008383611ab0565b806002600082825461101e91906129dd565b92505081905550806000808473ffffffffffffffffffffffffffffffffffffffff1673ffffffffffffffffffffffffffffffffffffffff168152602001908152602001600020600082825461107391906129dd565b925050819055508173ffffffffffffffffffffffffffffffffffffffff16600073ffffffffffffffffffffffffffffffffffffffff167fddf252ad1be2c89b69c2b068fc378daa952ba7f163c4a11628f55a4df523b3ef836040516110d891906124f3565b60405180910390a36110ec60008383611ab5565b5050565b600081836110fe91906129dd565b905092915050565b60007bffffffffffffffffffffffffffffffffffffffffffffffffffffffff8016821115611169576040517f08c379a000000000000000000000000000000000000000000000000000000000815260040161116090612ec8565b60405180910390fd5b819050919050565b600063ffffffff80168211156111bc576040517f08c379a00000000000000000000000000000000000000000000000000000000081526004016111b390612f5a565b60405180910390fd5b819050919050565b505050565b600081836111d79190612a9f565b905092915050565b600033905090565b600073ffffffffffffffffffffffffffffffffffffffff168373ffffffffffffffffffffffffffffffffffffffff161415611257576040517f08c379a000000000000000000000000000000000000000000000000000000000815260040161124e90612fec565b60405180910390fd5b600073ffffffffffffffffffffffffffffffffffffffff168273ffffffffffffffffffffffffffffffffffffffff1614156112c7576040517f08c379a00000000000000000000000000000000000000000000000000000000081526004016112be9061307e565b60405180910390fd5b80600160008573ffffffffffffffffffffffffffffffffffffffff1673ffffffffffffffffffffffffffffffffffffffff16815260200190815260200160002060008473ffffffffffffffffffffffffffffffffffffffff1673ffffffffffffffffffffffffffffffffffffffff168152602001908152602001600020819055508173ffffffffffffffffffffffffffffffffffffffff168373ffffffffffffffffffffffffffffffffffffffff167f8c5be1e5ebec7d5bd14f71427d1e84f3dd0314c0f7b2291e5b200ac8c7c3b925836040516113a591906124f3565b60405180910390a3505050565b60006113be8484610df9565b90507fffffffffffffffffffffffffffffffffffffffffffffffffffffffffffffffff8114611438578181101561142a576040517f08c379a0000000000000000000000000000000000000000000000000000000008152600401611421906130ea565b60405180910390fd5b61143784848484036111e7565b5b50505050565b600073ffffffffffffffffffffffffffffffffffffffff168373ffffffffffffffffffffffffffffffffffffffff1614156114ae576040517f08c379a00000000000000000000000000000000000000000000000000000000081526004016114a59061317c565b60405180910390fd5b600073ffffffffffffffffffffffffffffffffffffffff168273ffffffffffffffffffffffffffffffffffffffff16141561151e576040517f08c379a00000000000000000000000000000000000000000000000000000000081526004016115159061320e565b60405180910390fd5b611529838383611ab0565b60008060008573ffffffffffffffffffffffffffffffffffffffff1673ffffffffffffffffffffffffffffffffffffffff168152602001908152602001600020549050818110156115af576040517f08c379a00000000000000000000000000000000000000000000000000000000081526004016115a6906132a0565b60405180910390fd5b8181036000808673ffffffffffffffffffffffffffffffffffffffff1673ffffffffffffffffffffffffffffffffffffffff16815260200190815260200160002081905550816000808573ffffffffffffffffffffffffffffffffffffffff1673ffffffffffffffffffffffffffffffffffffffff168152602001908152602001600020600082825461164291906129dd565b925050819055508273ffffffffffffffffffffffffffffffffffffffff168473ffffffffffffffffffffffffffffffffffffffff167fddf252ad1be2c89b69c2b068fc378daa952ba7f163c4a11628f55a4df523b3ef846040516116a691906124f3565b60405180910390a36116b9848484611ab5565b50505050565b60007f000000000000000000000000000000000000000000000000000000000000000073ffffffffffffffffffffffffffffffffffffffff163073ffffffffffffffffffffffffffffffffffffffff1614801561173b57507f000000000000000000000000000000000000000000000000000000000000000046145b15611768577f000000000000000000000000000000000000000000000000000000000000000090506117d6565b6117d37f00000000000000000000000000000000000000000000000000000000000000007f00000000000000000000000000000000000000000000000000000000000000007f0000000000000000000000000000000000000000000000000000000000000000611ae0565b90505b90565b6000808380549050905060005b818110156118585760006117fa8284611b1a565b9050848682815481106118105761180f612ad3565b5b9060005260206000200160000160009054906101000a900463ffffffff1663ffffffff16111561184257809250611852565b60018161184f91906129dd565b91505b506117e6565b600082146118ba578460018361186e9190612a9f565b8154811061187f5761187e612ad3565b5b9060005260206000200160000160049054906101000a90047bffffffffffffffffffffffffffffffffffffffffffffffffffffffff166118bd565b60005b7bffffffffffffffffffffffffffffffffffffffffffffffffffffffff169250505092915050565b60006118f08361073e565b905060006118fd84610815565b905082600660008673ffffffffffffffffffffffffffffffffffffffff1673ffffffffffffffffffffffffffffffffffffffff16815260200190815260200160002060006101000a81548173ffffffffffffffffffffffffffffffffffffffff021916908373ffffffffffffffffffffffffffffffffffffffff1602179055508273ffffffffffffffffffffffffffffffffffffffff168273ffffffffffffffffffffffffffffffffffffffff168573ffffffffffffffffffffffffffffffffffffffff167f3134e8a2e6d97e929a7e54011ea5485d7d196dd5f0ba4d4ef95803e8e3fc257f60405160405180910390a46119f9828483611b40565b50505050565b600081600001549050919050565b6000611a20611a1a6116bf565b83611d39565b9050919050565b6000806000611a3887878787611d6c565b91509150611a4581611e79565b8192505050949350505050565b600080600560008473ffffffffffffffffffffffffffffffffffffffff1673ffffffffffffffffffffffffffffffffffffffff1681526020019081526020016000209050611a9f816119ff565b9150611aaa8161204e565b50919050565b505050565b611ac08383836111c4565b611adb611acc8461073e565b611ad58461073e565b83611b40565b505050565b60008383834630604051602001611afb9594939291906132c0565b6040516020818303038152906040528051906020012090509392505050565b60006002828418611b2b9190613342565b828416611b3891906129dd565b905092915050565b8173ffffffffffffffffffffffffffffffffffffffff168373ffffffffffffffffffffffffffffffffffffffff1614158015611b7c5750600081115b15611d3457600073ffffffffffffffffffffffffffffffffffffffff168373ffffffffffffffffffffffffffffffffffffffff1614611c5a57600080611c03600760008773ffffffffffffffffffffffffffffffffffffffff1673ffffffffffffffffffffffffffffffffffffffff1681526020019081526020016000206111c985612064565b915091508473ffffffffffffffffffffffffffffffffffffffff167fdec2bacdd2f05b59de34da9b523dff8be42e5e38e818c82fdb0bae774387a7248383604051611c4f929190613373565b60405180910390a250505b600073ffffffffffffffffffffffffffffffffffffffff168273ffffffffffffffffffffffffffffffffffffffff1614611d3357600080611cdc600760008673ffffffffffffffffffffffffffffffffffffffff1673ffffffffffffffffffffffffffffffffffffffff1681526020019081526020016000206110f085612064565b915091508373ffffffffffffffffffffffffffffffffffffffff167fdec2bacdd2f05b59de34da9b523dff8be42e5e38e818c82fdb0bae774387a7248383604051611d28929190613373565b60405180910390a250505b5b505050565b60008282604051602001611d4e929190613414565b60405160208183030381529060405280519060200120905092915050565b6000807f7fffffffffffffffffffffffffffffff5d576e7357a4501ddfe92f46681b20a08360001c1115611da7576000600391509150611e70565b601b8560ff1614158015611dbf5750601c8560ff1614155b15611dd1576000600491509150611e70565b600060018787878760405160008152602001604052604051611df6949392919061344b565b6020604051602081039080840390855afa158015611e18573d6000803e3d6000fd5b505050602060405103519050600073ffffffffffffffffffffffffffffffffffffffff168173ffffffffffffffffffffffffffffffffffffffff161415611e6757600060019250925050611e70565b80600092509250505b94509492505050565b60006004811115611e8d57611e8c613490565b5b816004811115611ea057611e9f613490565b5b1415611eab5761204b565b60016004811115611ebf57611ebe613490565b5b816004811115611ed257611ed1613490565b5b1415611f13576040517f08c379a0000000000000000000000000000000000000000000000000000000008152600401611f0a9061350b565b60405180910390fd5b60026004811115611f2757611f26613490565b5b816004811115611f3a57611f39613490565b5b1415611f7b576040517f08c379a0000000000000000000000000000000000000000000000000000000008152600401611f7290613577565b60405180910390fd5b60036004811115611f8f57611f8e613490565b5b816004811115611fa257611fa1613490565b5b1415611fe3576040517f08c379a0000000000000000000000000000000000000000000000000000000008152600401611fda90613609565b60405180910390fd5b600480811115611ff657611ff5613490565b5b81600481111561200957612008613490565b5b141561204a576040517f08c379a00000000000000000000000000000000000000000000000000000000081526004016120419061369b565b60405180910390fd5b5b50565b6001816000016000828254019250508190555050565b600080600085805490509050600081146120d257856001826120869190612a9f565b8154811061209757612096612ad3565b5b9060005260206000200160000160049054906101000a90047bffffffffffffffffffffffffffffffffffffffffffffffffffffffff166120d5565b60005b7bffffffffffffffffffffffffffffffffffffffffffffffffffffffff16925061210383858763ffffffff16565b91506000811180156121565750438660018361211f9190612a9f565b815481106121305761212f612ad3565b5b9060005260206000200160000160009054906101000a900463ffffffff1663ffffffff16145b156121e35761216482611106565b866001836121729190612a9f565b8154811061218357612182612ad3565b5b9060005260206000200160000160046101000a8154817bffffffffffffffffffffffffffffffffffffffffffffffffffffffff02191690837bffffffffffffffffffffffffffffffffffffffffffffffffffffffff1602179055506122d3565b8560405180604001604052806121f843611171565b63ffffffff16815260200161220c85611106565b7bffffffffffffffffffffffffffffffffffffffffffffffffffffffff168152509080600181540180825580915050600190039060005260206000200160009091909190915060008201518160000160006101000a81548163ffffffff021916908363ffffffff16021790555060208201518160000160046101000a8154817bffffffffffffffffffffffffffffffffffffffffffffffffffffffff02191690837bffffffffffffffffffffffffffffffffffffffffffffffffffffffff16021790555050505b50935093915050565b6040518060400160405280600063ffffffff16815260200160007bffffffffffffffffffffffffffffffffffffffffffffffffffffffff1681525090565b600081519050919050565b600082825260208201905092915050565b60005b83811015612354578082015181840152602081019050612339565b83811115612363576000848401525b50505050565b6000601f19601f8301169050919050565b60006123858261231a565b61238f8185612325565b935061239f818560208601612336565b6123a881612369565b840191505092915050565b600060208201905081810360008301526123cd818461237a565b905092915050565b600080fd5b600073ffffffffffffffffffffffffffffffffffffffff82169050919050565b6000612405826123da565b9050919050565b612415816123fa565b811461242057600080fd5b50565b6000813590506124328161240c565b92915050565b6000819050919050565b61244b81612438565b811461245657600080fd5b50565b60008135905061246881612442565b92915050565b60008060408385031215612485576124846123d5565b5b600061249385828601612423565b92505060206124a485828601612459565b9150509250929050565b60008115159050919050565b6124c3816124ae565b82525050565b60006020820190506124de60008301846124ba565b92915050565b6124ed81612438565b82525050565b600060208201905061250860008301846124e4565b92915050565b600080600060608486031215612527576125266123d5565b5b600061253586828701612423565b935050602061254686828701612423565b925050604061255786828701612459565b9150509250925092565b600060ff82169050919050565b61257781612561565b82525050565b6000602082019050612592600083018461256e565b92915050565b6000819050919050565b6125ab81612598565b82525050565b60006020820190506125c660008301846125a2565b92915050565b6000602082840312156125e2576125e16123d5565b5b60006125f084828501612423565b91505092915050565b612602816123fa565b82525050565b600060208201905061261d60008301846125f9565b92915050565b600063ffffffff82169050919050565b61263c81612623565b82525050565b60006020820190506126576000830184612633565b92915050565b600060208284031215612673576126726123d5565b5b600061268184828501612459565b91505092915050565b61269381612561565b811461269e57600080fd5b50565b6000813590506126b08161268a565b92915050565b6126bf81612598565b81146126ca57600080fd5b50565b6000813590506126dc816126b6565b92915050565b60008060008060008060c087890312156126ff576126fe6123d5565b5b600061270d89828a01612423565b965050602061271e89828a01612459565b955050604061272f89828a01612459565b945050606061274089828a016126a1565b935050608061275189828a016126cd565b92505060a061276289828a016126cd565b9150509295509295509295565b600080600080600080600060e0888a03121561278e5761278d6123d5565b5b600061279c8a828b01612423565b97505060206127ad8a828b01612423565b96505060406127be8a828b01612459565b95505060606127cf8a828b01612459565b94505060806127e08a828b016126a1565b93505060a06127f18a828b016126cd565b92505060c06128028a828b016126cd565b91505092959891949750929550565b60008060408385031215612828576128276123d5565b5b600061283685828601612423565b925050602061284785828601612423565b9150509250929050565b61285a81612623565b811461286557600080fd5b50565b60008135905061287781612851565b92915050565b60008060408385031215612894576128936123d5565b5b60006128a285828601612423565b92505060206128b385828601612868565b9150509250929050565b6128c681612623565b82525050565b60007bffffffffffffffffffffffffffffffffffffffffffffffffffffffff82169050919050565b6128fd816128cc565b82525050565b60408201600082015161291960008501826128bd565b50602082015161292c60208501826128f4565b50505050565b60006040820190506129476000830184612903565b92915050565b7f4e487b7100000000000000000000000000000000000000000000000000000000600052602260045260246000fd5b6000600282049050600182168061299457607f821691505b602082108114156129a8576129a761294d565b5b50919050565b7f4e487b7100000000000000000000000000000000000000000000000000000000600052601160045260246000fd5b60006129e882612438565b91506129f383612438565b9250827fffffffffffffffffffffffffffffffffffffffffffffffffffffffffffffffff03821115612a2857612a276129ae565b5b828201905092915050565b7f4552433230566f7465733a20626c6f636b206e6f7420796574206d696e656400600082015250565b6000612a69601f83612325565b9150612a7482612a33565b602082019050919050565b60006020820190508181036000830152612a9881612a5c565b9050919050565b6000612aaa82612438565b9150612ab583612438565b925082821015612ac857612ac76129ae565b5b828203905092915050565b7f4e487b7100000000000000000000000000000000000000000000000000000000600052603260045260246000fd5b7f45524332303a2064656372656173656420616c6c6f77616e63652062656c6f7760008201527f207a65726f000000000000000000000000000000000000000000000000000000602082015250565b6000612b5e602583612325565b9150612b6982612b02565b604082019050919050565b60006020820190508181036000830152612b8d81612b51565b9050919050565b7f4552433230566f7465733a207369676e61747572652065787069726564000000600082015250565b6000612bca601d83612325565b9150612bd582612b94565b602082019050919050565b60006020820190508181036000830152612bf981612bbd565b9050919050565b6000608082019050612c1560008301876125a2565b612c2260208301866125f9565b612c2f60408301856124e4565b612c3c60608301846124e4565b95945050505050565b7f4552433230566f7465733a20696e76616c6964206e6f6e636500000000000000600082015250565b6000612c7b601983612325565b9150612c8682612c45565b602082019050919050565b60006020820190508181036000830152612caa81612c6e565b9050919050565b7f45524332305065726d69743a206578706972656420646561646c696e65000000600082015250565b6000612ce7601d83612325565b9150612cf282612cb1565b602082019050919050565b60006020820190508181036000830152612d1681612cda565b9050919050565b600060c082019050612d3260008301896125a2565b612d3f60208301886125f9565b612d4c60408301876125f9565b612d5960608301866124e4565b612d6660808301856124e4565b612d7360a08301846124e4565b979650505050505050565b7f45524332305065726d69743a20696e76616c6964207369676e61747572650000600082015250565b6000612db4601e83612325565b9150612dbf82612d7e565b602082019050919050565b60006020820190508181036000830152612de381612da7565b9050919050565b7f45524332303a206d696e7420746f20746865207a65726f206164647265737300600082015250565b6000612e20601f83612325565b9150612e2b82612dea565b602082019050919050565b60006020820190508181036000830152612e4f81612e13565b9050919050565b7f53616665436173743a2076616c756520646f65736e27742066697420696e203260008201527f3234206269747300000000000000000000000000000000000000000000000000602082015250565b6000612eb2602783612325565b9150612ebd82612e56565b604082019050919050565b60006020820190508181036000830152612ee181612ea5565b9050919050565b7f53616665436173743a2076616c756520646f65736e27742066697420696e203360008201527f3220626974730000000000000000000000000000000000000000000000000000602082015250565b6000612f44602683612325565b9150612f4f82612ee8565b604082019050919050565b60006020820190508181036000830152612f7381612f37565b9050919050565b7f45524332303a20617070726f76652066726f6d20746865207a65726f2061646460008201527f7265737300000000000000000000000000000000000000000000000000000000602082015250565b6000612fd6602483612325565b9150612fe182612f7a565b604082019050919050565b6000602082019050818103600083015261300581612fc9565b9050919050565b7f45524332303a20617070726f766520746f20746865207a65726f20616464726560008201527f7373000000000000000000000000000000000000000000000000000000000000602082015250565b6000613068602283612325565b91506130738261300c565b604082019050919050565b600060208201905081810360008301526130978161305b565b9050919050565b7f45524332303a20696e73756666696369656e7420616c6c6f77616e6365000000600082015250565b60006130d4601d83612325565b91506130df8261309e565b602082019050919050565b60006020820190508181036000830152613103816130c7565b9050919050565b7f45524332303a207472616e736665722066726f6d20746865207a65726f20616460008201527f6472657373000000000000000000000000000000000000000000000000000000602082015250565b6000613166602583612325565b91506131718261310a565b604082019050919050565b6000602082019050818103600083015261319581613159565b9050919050565b7f45524332303a207472616e7366657220746f20746865207a65726f206164647260008201527f6573730000000000000000000000000000000000000000000000000000000000602082015250565b60006131f8602383612325565b91506132038261319c565b604082019050919050565b60006020820190508181036000830152613227816131eb565b9050919050565b7f45524332303a207472616e7366657220616d6f756e742065786365656473206260008201527f616c616e63650000000000000000000000000000000000000000000000000000602082015250565b600061328a602683612325565b91506132958261322e565b604082019050919050565b600060208201905081810360008301526132b98161327d565b9050919050565b600060a0820190506132d560008301886125a2565b6132e260208301876125a2565b6132ef60408301866125a2565b6132fc60608301856124e4565b61330960808301846125f9565b9695505050505050565b7f4e487b7100000000000000000000000000000000000000000000000000000000600052601260045260246000fd5b600061334d82612438565b915061335883612438565b92508261336857613367613313565b5b828204905092915050565b600060408201905061338860008301856124e4565b61339560208301846124e4565b9392505050565b600081905092915050565b7f1901000000000000000000000000000000000000000000000000000000000000600082015250565b60006133dd60028361339c565b91506133e8826133a7565b600282019050919050565b6000819050919050565b61340e61340982612598565b6133f3565b82525050565b600061341f826133d0565b915061342b82856133fd565b60208201915061343b82846133fd565b6020820191508190509392505050565b600060808201905061346060008301876125a2565b61346d602083018661256e565b61347a60408301856125a2565b61348760608301846125a2565b95945050505050565b7f4e487b7100000000000000000000000000000000000000000000000000000000600052602160045260246000fd5b7f45434453413a20696e76616c6964207369676e61747572650000000000000000600082015250565b60006134f5601883612325565b9150613500826134bf565b602082019050919050565b60006020820190508181036000830152613524816134e8565b9050919050565b7f45434453413a20696e76616c6964207369676e6174757265206c656e67746800600082015250565b6000613561601f83612325565b915061356c8261352b565b602082019050919050565b6000602082019050818103600083015261359081613554565b9050919050565b7f45434453413a20696e76616c6964207369676e6174757265202773272076616c60008201527f7565000000000000000000000000000000000000000000000000000000000000602082015250565b60006135f3602283612325565b91506135fe82613597565b604082019050919050565b60006020820190508181036000830152613622816135e6565b9050919050565b7f45434453413a20696e76616c6964207369676e6174757265202776272076616c60008201527f7565000000000000000000000000000000000000000000000000000000000000602082015250565b6000613685602283612325565b915061369082613629565b604082019050919050565b600060208201905081810360008301526136b481613678565b905091905056fea26469706673582212201b5ba0a7bdd1a63c72d5a43cf4a816985f1267424dad4ab0a70a4bcbaa505ec564736f6c63430008080033",
  "linkReferences": {},
  "deployedLinkReferences": {}
}